{
  "contractName": "EthAvatar",
  "abi": [
    {
      "anonymous": false,
      "inputs": [
        {
          "indexed": true,
          "name": "hashAddress",
          "type": "address"
        },
        {
          "indexed": false,
          "name": "hash",
          "type": "string"
        }
      ],
      "name": "DidSetIPFSHash",
      "type": "event"
    },
    {
      "constant": false,
      "inputs": [
        {
          "name": "hash",
          "type": "string"
        }
      ],
      "name": "setIPFSHash",
      "outputs": [],
      "payable": false,
      "stateMutability": "nonpayable",
      "type": "function"
    },
    {
      "constant": true,
      "inputs": [
        {
          "name": "hashAddress",
          "type": "address"
        }
      ],
      "name": "getIPFSHash",
      "outputs": [
        {
          "name": "",
          "type": "string"
        }
      ],
      "payable": false,
      "stateMutability": "view",
      "type": "function"
    }
  ],
  "bytecode": "0x6060604052341561000f57600080fd5b6104348061001e6000396000f30060606040526004361061004c576000357c0100000000000000000000000000000000000000000000000000000000900463ffffffff168063b8a76f5414610051578063cb0ab425146100ae575b600080fd5b341561005c57600080fd5b6100ac600480803590602001908201803590602001908080601f01602080910402602001604051908101604052809392919081815260200183838082843782019150505050505091905050610160565b005b34156100b957600080fd5b6100e5600480803573ffffffffffffffffffffffffffffffffffffffff16906020019091905050610269565b6040518080602001828103825283818151815260200191508051906020019080838360005b8381101561012557808201518184015260208101905061010a565b50505050905090810190601f1680156101525780820380516001836020036101000a031916815260200191505b509250505060405180910390f35b806000803373ffffffffffffffffffffffffffffffffffffffff1673ffffffffffffffffffffffffffffffffffffffff16815260200190815260200160002090805190602001906101b292919061034f565b503373ffffffffffffffffffffffffffffffffffffffff167f3ad00a2153f5aa93fde4e185fe1fdbf9a5504e110816d08da5fe39fbe7cec83e826040518080602001828103825283818151815260200191508051906020019080838360005b8381101561022c578082015181840152602081019050610211565b50505050905090810190601f1680156102595780820380516001836020036101000a031916815260200191505b509250505060405180910390a250565b6102716103cf565b6000808373ffffffffffffffffffffffffffffffffffffffff1673ffffffffffffffffffffffffffffffffffffffff1681526020019081526020016000208054600181600116156101000203166002900480601f0160208091040260200160405190810160405280929190818152602001828054600181600116156101000203166002900480156103435780601f1061031857610100808354040283529160200191610343565b820191906000526020600020905b81548152906001019060200180831161032657829003601f168201915b50505050509050919050565b828054600181600116156101000203166002900490600052602060002090601f016020900481019282601f1061039057805160ff19168380011785556103be565b828001600101855582156103be579182015b828111156103bd5782518255916020019190600101906103a2565b5b5090506103cb91906103e3565b5090565b602060405190810160405280600081525090565b61040591905b808211156104015760008160009055506001016103e9565b5090565b905600a165627a7a72305820fe3df6962100bab496f2b2dba0536fae17403c68c7934c8520136f967d3f9d220029",
  "source": "pragma solidity ^0.4.19;\n\ncontract EthAvatar {\n    mapping (address => string) private ipfsHashes;\n\n    event DidSetIPFSHash(address indexed hashAddress, string hash);\n\n\n    function setIPFSHash(string hash) public {\n        ipfsHashes[msg.sender] = hash;\n\n        DidSetIPFSHash(msg.sender, hash);\n    }\n\n    function getIPFSHash(address hashAddress) public view returns (string) {\n        return ipfsHashes[hashAddress];\n    }\n}\n",
  "sourcePath": "/Users/tarekskr/Development/ethereum/eth-avatar/contracts/EthAvatar.sol",
  "compiler": {
    "name": "solc",
    "version": "0.4.19+commit.c4cbbb05.Emscripten.clang"
  },
  "schemaVersion": "2.0.0",
  "updatedAt": "2018-03-09T22:06:28.523Z"
}